:060000000A128A1110280B
:10000800FE00030E83120313A2000A08A3007F0850
:10001800A4000A168A15762F0A128A111328831744
:10002800C730FD001030FE00BB30FF009030840068
:100038000A168A117C200A128A116030FD001130DC
:10004800FE00B030FF00103084000A168A117C20B0
:100058000A128A118313E430FD000730FE00EC30E9
:10006800FF00D03084000A168A117C208316E40130
:10007800E501E601E701E801E9018312E801E90188
:10008800EA0183010A168A110B2E8316B900390872
:1000980084000008BA00840A0008BB00840A00082B
:1000A800BC003A088312C60083163B088312C700B7
:1000B80083163C088312C8000030C3007A30C4009D
:1000C8004430C5000A168A11F0230A128A1143081F
:1000D800D5004408D6004508D7000030C000A0303D
:1000E800C1004030C20083163A088312BD0083164F
:1000F8003B088312BE0083163C088312BF000A1611
:100108008A15EF260A128A113D08D2003E08D3004C
:100118003F08D4000A168A11D8220A128A115208F6
:10012800E1005308E2005408E3000A168A11642328
:100138000A128A1164088316C200831263088316A0
:10014800C100831262088316C000831261088316F7
:10015800BF004208031D38294108031D38294008FB
:10016800031D3829F2303F02031DBA280318382925
:10017800831603134208031DCD284108031DCD280B
:100188004008031DCD28B2303F02031DCB28031CB5
:1001980038298316031342088312B00083164108D6
:1001A8008312AF00831640088312AE0083163F08FF
:1001B8008312AD000A168A154F270A128A112D08D4
:1001C8008316A60083122E088316A70083122F0811
:1001D8008316A8008312031713080313B00003172C
:1001E80012080313AF00031711080313AE00031717
:1001F80010080313AD000A168A154F270A128A1130
:100208002D088316A90083122E088316AA008312CC
:100218002F088316AB000430103E840083170008B3
:100228008312AD00840A0008AE00840A0008AF00FB
:10023800840A0008B0000A168A154F270A128A1184
:100248002D088316AC0083122E088316AD00831286
:100258002F088316AE005008AF00B001AF1BB003E3
:1002680051080A128A15D62F831603134208031D54
:10027800C3294108031DC32901304002031D482931
:100288004D303F02031D48290318C3298316031361
:100298004208031D5B294108031D5B294008031D13
:1002A8005B29F2303F02031D5929031CC329831619
:1002B800031342088312B000831641088312AF006B
:1002C800831640088312AE0083163F088312AD00E0
:1002D8000A168A154F270A128A112D088316A600B6
:1002E80083122E088316A70083122F088316A800EE
:1002F8000430103E8400831700088312AD00840A7E
:100308000008AE00840A0008AF00840A0008B000A4
:100318000A168A154F270A128A112D088316A90072
:1003280083122E088316AA0083122F088316AB00A7
:100338000830103E8400831700088312AD00840A39
:100348000008AE00840A0008AF00840A0008B00064
:100358000A168A154F270A128A112D088316AC002F
:1003680083122E088316AD0083122F088316AE0061
:100378005108AF00B001AF1BB003520835298316EE
:1003880003134208031D4F2A4108031D4F2A013059
:100398004002031DD329D4303F02031DD32903187B
:1003A8004F2A831603134208031DE7294108031D3A
:1003B800E72901304002031DE5294D303F02031DA6
:1003C800E529031C4F2A8316031342088312B00041
:1003D800831641088312AF00831640088312AE00CB
:1003E80083163F088312AD000A168A154F270A1292
:1003F8008A112D088316A60083122E088316A700DB
:1004080083122F088316A8000830103E8400831733
:1004180000088312AD00840A0008AE00840A0008B0
:10042800AF00840A0008B0000A168A154F270A127E
:100438008A112D088316A90083122E088316AA0094
:1004480083122F088316AB000C30103E84008317EC
:1004580000088312AD00840A0008AE00840A000870
:10046800AF00840A0008B0000A168A154F270A123E
:100478008A112D088316AC0083122E088316AD004E
:1004880083122F088316AE005208AF00B001AF1BCD
:10049800B00353083529831603134208031DDB2ACA
:1004A8004108031DDB2A02304002031D5F2A9C30ED
:1004B8003F02031D5F2A0318DB2A83160313420831
:1004C800031D732A4108031D732A01304002031DCE
:1004D800712AD4303F02031D712A031CDB2A8316BC
:1004E800031342088312B000831641088312AF0039
:1004F800831640088312AE0083163F088312AD00AE
:100508000A168A154F270A128A112D088316A60083
:1005180083122E088316A70083122F088316A800BB
:100528000C30103E8400831700088312AD00840A43
:100538000008AE00840A0008AF00840A0008B00072
:100548000A168A154F270A128A112D088316A90040
:1005580083122E088316AA0083122F088316AB0075
:100568001030103E8400831700088312AD00840AFF
:100578000008AE00840A0008AF00840A0008B00032
:100588000A168A154F270A128A112D088316AC00FD
:1005980083122E088316AD0083122F088316AE002F
:1005A8005308AF00B001AF1BB003540835298316B8
:1005B80003134208031D672B4108031D672B0330F3
:1005C8004002031DEB2ACE303F02031DEB2A03181D
:1005D800672B831603134208031DFF2A4108031DD6
:1005E800FF2A02304002031DFD2A9C303F02031DF2
:1005F800FD2A031C672B8316031342088312B000DD
:10060800831641088312AF00831640088312AE0098
:1006180083163F088312AD000A168A154F270A125F
:100628008A112D088316A60083122E088316A700A8
:1006380083122F088316A8001030103E84008317F9
:1006480000088312AD00840A0008AE00840A00087E
:10065800AF00840A0008B0000A168A154F270A124C
:100668008A112D088316A90083122E088316AA0062
:1006780083122F088316AB001430103E84008317B2
:1006880000088312AD00840A0008AE00840A00083E
:10069800AF00840A0008B0000A168A154F270A120C
:1006A8008A112D088316AC0083122E088316AD001C
:1006B80083122F088316AE005408AF00B001AF1B99
:1006C800B00355083529831603134208031DF32B7D
:1006D8004108031DF32B04304002031D772BA5307E
:1006E8003F02031D772B0318F32B831603134208CD
:1006F800031D8B2B4108031D8B2B03304002031D68
:10070800892BCE303F02031D892B031CF32B831644
:10071800031342088312B000831641088312AF0006
:10072800831640088312AE0083163F088312AD007B
:100738000A168A154F270A128A112D088316A60051
:1007480083122E088316A70083122F088316A80089
:100758001430103E8400831700088312AD00840A09
:100768000008AE00840A0008AF00840A0008B00040
:100778000A168A154F270A128A112D088316A9000E
:1007880083122E088316AA0083122F088316AB0043
:100798001830103E8400831700088312AD00840AC5
:1007A8000008AE00840A0008AF00840A0008B00000
:1007B8000A168A154F270A128A112D088316AC00CB
:1007C80083122E088316AD0083122F088316AE00FD
:1007D8005508AF00B001AF1BB00356083529831682
:1007E80003134208031D7F2C4108031D7F2C05308D
:1007F8004002031D032CB4303F02031D032C0318D1
:100808007F2C831603134208031D172C4108031D70
:10081800172C04304002031D152CA5303F02031D80
:10082800152C031C7F2C8316031342088312B00077
:10083800831641088312AF00831640088312AE0066
:1008480083163F088312AD000A168A154F270A122D
:100858008A112D088316A60083122E088316A70076
:1008680083122F088316A8001830103E84008317BF
:1008780000088312AD00840A0008AE00840A00084C
:10088800AF00840A0008B0000A168A154F270A121A
:100898008A112D088316A90083122E088316AA0030
:1008A80083122F088316AB001C30103E8400831778
:1008B80000088312AD00840A0008AE00840A00080C
:1008C800AF00840A0008B0000A168A154F270A12DA
:1008D8008A112D088316AC0083122E088316AD00EA
:1008E80083122F088316AE005608AF00B001AF1B65
:1008F800B00357083529831603134208031D0B2D2F
:100908004108031D0B2D07304002031D8F2C0B30AF
:100918003F02031D8F2C03180B2D83160313420867
:10092800031DA32C4108031DA32C05304002031D01
:10093800A12CB4303F02031DA12C031C0B2D8316E0
:10094800031342088312B000831641088312AF00D4
:10095800831640088312AE0083163F088312AD0049
:100968000A168A154F270A128A112D088316A6001F
:1009780083122E088316A70083122F088316A80057
:100988001C30103E8400831700088312AD00840ACF
:100998000008AE00840A0008AF00840A0008B0000E
:1009A8000A168A154F270A128A112D088316A900DC
:1009B80083122E088316AA0083122F088316AB0011
:1009C8002030103E8400831700088312AD00840A8B
:1009D8000008AE00840A0008AF00840A0008B000CE
:1009E8000A168A154F270A128A112D088316AC0099
:1009F80083122E088316AD0083122F088316AE00CB
:100A08005708AF00B001AF1BB0035808352983164B
:100A180003134208031D972D4108031D972D083025
:100A28004002031D1B2DBF303F02031D1B2D031861
:100A3800972D831603134208031D2F2D4108031D0C
:100A48002F2D07304002031D2D2D0B303F02031DB3
:100A58002D2D031C972D8316031342088312B00013
:100A6800831641088312AF00831640088312AE0034
:100A780083163F088312AD000A168A154F270A12FB
:100A88008A112D088316A60083122E088316A70044
:100A980083122F088316A8002030103E8400831785
:100AA80000088312AD00840A0008AE00840A00081A
:100AB800AF00840A0008B0000A168A154F270A12E8
:100AC8008A112D088316A90083122E088316AA00FE
:100AD80083122F088316AB002430103E840083173E
:100AE80000088312AD00840A0008AE00840A0008DA
:100AF800AF00840A0008B0000A168A154F270A12A8
:100B08008A112D088316AC0083122E088316AD00B7
:100B180083122F088316AE005808AF00B001AF1B30
:100B2800B00359083529831603134208031D232EE1
:100B38004108031D232E0A304002031DA72DED3066
:100B48003F02031DA72D0318232E83160313420803
:100B5800031DBB2D4108031DBB2D08304002031D9A
:100B6800B92DBF303F02031DB92D031C232E831658
:100B7800031342088312B000831641088312AF00A2
:100B8800831640088312AE0083163F088312AD0017
:100B98000A168A154F270A128A112D088316A600ED
:100BA80083122E088316A70083122F088316A80025
:100BB8002430103E8400831700088312AD00840A95
:100BC8000008AE00840A0008AF00840A0008B000DC
:100BD8000A168A154F270A128A112D088316A900AA
:100BE80083122E088316AA0083122F088316AB00DF
:100BF8002830103E8400831700088312AD00840A51
:100C08000008AE00840A0008AF00840A0008B0009B
:100C18000A168A154F270A128A112D088316AC0066
:100C280083122E088316AD0083122F088316AE0098
:100C38005908AF00B001AF1BB0035A083529831615
:100C480003134208031DAF2E4108031DAF2E0D30BC
:100C58004002031D332EC1303F02031D332E0318FB
:100C6800AF2E831603134208031D472E4108031DA8
:100C7800472E0A304002031D452EED303F02031D6A
:100C8800452E031CAF2E8316031342088312B000AF
:100C9800831641088312AF00831640088312AE0002
:100CA80083163F088312AD000A168A154F270A12C9
:100CB8008A112D088316A60083122E088316A70012
:100CC80083122F088316A8002830103E840083174B
:100CD80000088312AD00840A0008AE00840A0008E8
:100CE800AF00840A0008B0000A168A154F270A12B6
:100CF8008A112D088316A90083122E088316AA00CC
:100D080083122F088316AB002C30103E8400831703
:100D180000088312AD00840A0008AE00840A0008A7
:100D2800AF00840A0008B0000A168A154F270A1275
:100D38008A112D088316AC0083122E088316AD0085
:100D480083122F088316AE005A08AF00B001AF1BFC
:100D5800B0035B083529831603134208031D3B2F94
:100D68004108031D3B2F11304002031DBF2E633085
:100D78003F02031DBF2E03183B2F8316031342089F
:100D8800031DD32E4108031DD32E0D304002031D31
:100D9800D12EC1303F02031DD12E031C3B2F8316D9
:100DA800031342088312B000831641088312AF0070
:100DB800831640088312AE0083163F088312AD00E5
:100DC8000A168A154F270A128A112D088316A600BB
:100DD80083122E088316A70083122F088316A800F3
:100DE8002C30103E8400831700088312AD00840A5B
:100DF8000008AE00840A0008AF00840A0008B000AA
:100E08000A168A154F270A128A112D088316A90077
:100E180083122E088316AA0083122F088316AB00AC
:100E28003030103E8400831700088312AD00840A16
:100E38000008AE00840A0008AF00840A0008B00069
:100E48000A168A154F270A128A112D088316AC0034
:100E580083122E088316AD0083122F088316AE0066
:100E68005B08AF00B001AF1BB0035C0835290A125C
:100E78008A15022C0030A8000030A7000730A60011
:100E8800D030A5000A168A11F2200A128A112C30D5
:100E98000A168A15CF270A128A110030A8000030D6
:100EA800A7000030A6006430A5000A168A11F220B7
:100EB8000A128A110A168A15AD260A128A110030FA
:100EC800A8000030A7000B30A600B830A5000A160D
:100ED8008A11F2200A128A1102300A168A15CF27BF
:100EE8000A128A110030A8000030A7000730A600B7
:100EF800D030A5000A168A11F2200A128A1106308B
:100F08000A168A15CF270A128A110030A800003065
:100F1800A7000030A6006430A5000A168A11F22046
:100F28000A128A110C300A168A15CF270A128A115A
:100F38000030A8000030A7000030A6006430A500EB
:100F48000A168A11F2200A128A1110300A168A1516
:100F5800CF270A128A110030A8000030A7000030FD
:100F6800A6006430A5000A168A11F2200A128A1116
:100F78002C300A168A15CF270A128A110030A800C9
:100F88000030A7000030A6006430A5000A168A11B8
:100F9800F2200A128A1180300A168A1171200A1268
:100FA8008A113130B3008030B4000A168A152D2713
:100FB8000A128A1194300A168A1171200A128A11AB
:100FC8004330B3008030B4000A168A152D27080074
:100FD80064345A34503446343C3432342D34283452
:100FE80023341E34193414340F340A3405340034CD
:100FF800F634EC34E234D8340330850083128501AA
:101008008316880103178801033089008030031391
:101018009F00413083129F0083160C1783120C1314
:101028000B08E0388B0008008316B90039088400E3
:101038000008BC00840A0008BD00840A0008BE003D
:101048009A308312A5009930A6003E30A700831677
:101058003C088312A80083163D088312A900831652
:101068003E088312AA000A168A15A2270A128A15B0
:10107800031C8528CD30A500CC30A6003D30A70044
:1010880083163C088312A80083163D088312A90022
:1010980083163E088312AA000A168A15A2270A1286
:1010A8008A150318852883163C08A6003D08A70062
:1010B8003E08A800031710080313A9000317110816
:1010C8000313AA00031712080313AB000330903E62
:1010D800840083170008AC00840A0008AD00840A65
:1010E8000008AE00031732080313B00003173108D5
:1010F8000313AF00031734080313B20003173308B0
:10110800DB2B9A30A5001930A6003F30A7008316C4
:101118003C088312A80083163D088312A900831691
:101128003E088312AA000A168A15A2270A128A15EF
:10113800031CE4289A30A5009930A6003E30A70089
:1011480083163C088312A80083163D088312A90061
:1011580083163E088312AA000A168A15A2270A12C5
:101168008A150318E42883163C08A6003D08A70042
:101178003E08A8000330903E840083170008A900A9
:10118800840A0008AA00840A0008AB000630903ED2
:1011980084000008AC00840A0008AD00840A000836
:1011A800AE00031734080313B00003173308031302
:1011B800AF00031736080313B20003173508DB2BFB
:1011C800CD30A5008C30A6003F30A70083163C0820
:1011D8008312A80083163D088312A90083163E08CF
:1011E8008312AA000A168A15A2270A128A15031C56
:1011F80043299A30A5001930A6003F30A70083166E
:101208003C088312A80083163D088312A9008316A0
:101218003E088312AA000A168A15A2270A128A15FE
:101228000318432983163C08A6003D08A7003E087A
:10123800A8000630903E840083170008A900840A9D
:101248000008AA00840A0008AB000930903E840018
:101258000008AC00840A0008AD00840A0008AE004B
:10126800031736080313B000031735080313AF003C
:10127800031738080313B20003173708DB2B9A301B
:10128800A500D930A6003F30A70083163C0883127A
:10129800A80083163D088312A90083163E0883120E
:1012A800AA000A168A15A2270A128A15031CA2295F
:1012B800CD30A5008C30A6003F30A70083163C082F
:1012C8008312A80083163D088312A90083163E08DE
:1012D8008312AA000A168A15A2270A128A15031869
:1012E800A22983163C08A6003D08A7003E08A800CE
:1012F8000930903E840083170008A900840A00087A
:10130800AA00840A0008AB000C30903E8400000854
:10131800AC00840A0008AD00840A0008AE00031778
:1013280038080313B000031737080313AF00031777
:101338003A080313B20003173908DB2BCD30A50098
:101348000C30A6004030A70083163C088312A80082
:1013580083163D088312A90083163E088312AA004B
:101368000A168A15A2270A128A15031C012A9A301E
:10137800A500D930A6003F30A70083163C08831289
:10138800A80083163D088312A90083163E0883121D
:10139800AA000A168A15A2270A128A150318012A12
:1013A80083163C08A6003D08A7003E08A8000C309C
:1013B800903E840083170008A900840A0008AA0048
:1013C800840A0008AB000F30903E84000008AC008F
:1013D800840A0008AD00840A0008AE0003173A0822
:1013E8000313B000031739080313AF0003173C08B1
:1013F8000313B20003173B08DB2B9A30A5003930E2
:10140800A6004030A70083163C088312A800831664
:101418003D088312A90083163E088312AA000A1603
:101428008A15A2270A128A15031C602ACD30A50046
:101438000C30A6004030A70083163C088312A80091
:1014480083163D088312A90083163E088312AA005A
:101458000A168A15A2270A128A150318602A831603
:101468003C08A6003D08A7003E08A8000F30903EA3
:10147800840083170008A900840A0008AA00840AC7
:101488000008AB001230903E84000008AC00840ACB
:101498000008AD00840A0008AE0003173C080313D7
:1014A800B00003173B080313AF0003173E080313EC
:1014B800B20003173D08DB2B3330A5005330A600DC
:1014C8004030A70083163C088312A80083163D0805
:1014D8008312A90083163E088312AA000A168A15E9
:1014E800A2270A128A15031CBF2A9A30A500393090
:1014F800A6004030A70083163C088312A800831674
:101508003D088312A90083163E088312AA000A1612
:101518008A15A2270A128A150318BF2A83163C08BF
:10152800A6003D08A7003E08A8001230903E84009F
:1015380083170008A900840A0008AA00840A000882
:10154800AB001530903E84000008AC00840A000807
:10155800AD00840A0008AE0003173E080313B0006C
:1015680003173D080313AF00031740080313B20025
:1015780003173F08DB2B3330A5007330A60040303B
:10158800A70083163C088312A80083163D0883121F
:10159800A90083163E088312AA000A168A15A227F4
:1015A8000A128A15031C1E2B3330A5005330A600DF
:1015B8004030A70083163C088312A80083163D0814
:1015C8008312A90083163E088312AA000A168A15F8
:1015D800A2270A128A1503181E2B83163C08A60098
:1015E8003D08A7003E08A8001530903E84008317E8
:1015F8000008A900840A0008AA00840A0008AB00B1
:101608001830903E84000008AC00840A0008AD0041
:10161800840A0008AE00031740080313B00003173C
:101628003F080313AF00031742080313B200031760
:101638004108DB2BCD30A5008C30A6004030A70038
:1016480083163C088312A80083163D088312A9005C
:1016580083163E088312AA000A168A15A2270A12C0
:101668008A15031C7D2B3330A5007330A60040304B
:10167800A70083163C088312A80083163D0883122E
:10168800A90083163E088312AA000A168A15A22703
:101698000A128A1503187D2B83163C08A6003D08FC
:1016A800A7003E08A8001830903E84008317000861
:1016B800A900840A0008AA00840A0008AB001B30AD
:1016C800903E84000008AC00840A0008AD00840A3B
:1016D8000008AE00031742080313B00003174108BF
:1016E8000313AF00031744080313B200031743089A
:1016F800DB2BCD30A5009C30A6004030A700831618
:101708003C088312A80083163D088312A90083169B
:101718003E088312AA000A168A15A2270A128A15F9
:10172800031CE72BCD30A5008C30A6004030A70065
:1017380083163C088312A80083163D088312A9006B
:1017480083163E088312AA000A168A15A2270A12CF
:101758008A150318E72B83163C08A6003D08A70046
:101768003E08A8001B30903E840083170008A9009B
:10177800840A0008AA00840A0008AB001E30903EC4
:1017880084000008AC00840A0008AD00840A000840
:10179800AE00031744080313B000031743080313EC
:1017A800AF00031746080313B200031745080313D5
:1017B800B1000A168A1195240A128A152708BB0057
:1017C8002608BA00EC2B9C308316BA00FF30BB0009
:1017D8003B088312AE0083163A088312AD000A163E
:1017E8008A15D2262D088316B60083122E08831672
:1017F800B70083122F088316B80008008316031356
:101808004208031D8E2C4108031D8E2C1630400201
:10181800031D122C27303F02031D122C03188E2C97
:10182800831603134208031D262C4108031D262C8A
:1018380011304002031D242C63303F02031D242C69
:10184800031C8E2C8316031342088312B0008316E0
:1018580041088312AF00831640088312AE00831636
:101868003F088312AD000A168A154F270A128A15F7
:101878002D088316A60083122E088316A70083124C
:101888002F088316A8003030103E84008317000804
:101898008312AD00840A0008AE00840A0008AF0075
:1018A800840A0008B0000A168A154F270A128A15FA
:1018B8002D088316A90083122E088316AA00831206
:1018C8002F088316AB003430103E840083170008BD
:1018D8008312AD00840A0008AE00840A0008AF0035
:1018E800840A0008B0000A168A154F270A128A15BA
:1018F8002D088316AC0083122E088316AD008312C0
:101908002F088316AE005C08AF00B001AF1BB00310
:101918005D08D62F831603134208031D1A2D4108AC
:10192800031D1A2D1C304002031D9E2C71303F02EE
:10193800031D9E2C03181A2D831603134208031D3A
:10194800B22C4108031DB22C16304002031DB02CE6
:1019580027303F02031DB02C031C1A2D83160313D6
:1019680042088312B000831641088312AF00831621
:1019780040088312AE0083163F088312AD000A1692
:101988008A154F270A128A152D088316A600831276
:101998002E088316A70083122F088316A800343058
:1019A800103E8400831700088312AD00840A0008E3
:1019B800AE00840A0008AF00840A0008B0000A16C6
:1019C8008A154F270A128A152D088316A900831233
:1019D8002E088316AA0083122F088316AB0038300E
:1019E800103E8400831700088312AD00840A0008A3
:1019F800AE00840A0008AF00840A0008B0000A1686
:101A08008A154F270A128A152D088316AC008312EF
:101A18002E088316AD0083122F088316AE005D08CA
:101A2800AF00B001AF1BB0035E08D62F83160313B7
:101A38004208031DA62D4108031DA62D243040028F
:101A4800031D2A2DCD303F02031D2A2D0318A62D74
:101A5800831603134208031D3E2D4108031D3E2D26
:101A68001C304002031D3C2D71303F02031D3C2DEC
:101A7800031CA62D8316031342088312B000831695
:101A880041088312AF00831640088312AE00831604
:101A98003F088312AD000A168A154F270A128A15C5
:101AA8002D088316A60083122E088316A70083121A
:101AB8002F088316A8003830103E840083170008CA
:101AC8008312AD00840A0008AE00840A0008AF0043
:101AD800840A0008B0000A168A154F270A128A15C8
:101AE8002D088316A90083122E088316AA008312D4
:101AF8002F088316AB003C30103E84008317000883
:101B08008312AD00840A0008AE00840A0008AF0002
:101B1800840A0008B0000A168A154F270A128A1587
:101B28002D088316AC0083122E088316AD0083128D
:101B38002F088316AE005E08AF00B001AF1BB003DC
:101B48005F08D62F831603134208031D322E41085F
:101B5800031D322E3F304002031DB62D35303F02A3
:101B6800031DB62D0318322E831603134208031DD6
:101B7800CA2D4108031DCA2D24304002031DC82D5B
:101B8800CD303F02031DC82D031C322E83160313CC
:101B980042088312B000831641088312AF008316EF
:101BA80040088312AE0083163F088312AD000A1660
:101BB8008A154F270A128A152D088316A600831244
:101BC8002E088316A70083122F088316A8003C301E
:101BD800103E8400831700088312AD00840A0008B1
:101BE800AE00840A0008AF00840A0008B0000A1694
:101BF8008A154F270A128A152D088316A900831201
:101C08002E088316AA0083122F088316AB004030D3
:101C1800103E8400831700088312AD00840A000870
:101C2800AE00840A0008AF00840A0008B0000A1653
:101C38008A154F270A128A152D088316AC008312BD
:101C48002E088316AD0083122F088316AE005F0896
:101C5800AF00B001AF1BB0036008D62F8316031383
:101C68004208031DBE2E4108031DBE2E70304002DF
:101C7800031D422E09303F02031D422E0318BE2EBB
:101C8800831603134208031D562E4108031D562EC2
:101C98003F304002031D542E35303F02031D542EA1
:101CA800031CBE2E8316031342088312B00083164A
:101CB80041088312AF00831640088312AE008316D2
:101CC8003F088312AD000A168A154F270A128A1593
:101CD8002D088316A60083122E088316A7008312E8
:101CE8002F088316A8004030103E84008317000890
:101CF8008312AD00840A0008AE00840A0008AF0011
:101D0800840A0008B0000A168A154F270A128A1595
:101D18002D088316A90083122E088316AA008312A1
:101D28002F088316AB004430103E84008317000848
:101D38008312AD00840A0008AE00840A0008AF00D0
:101D4800840A0008B0000A168A154F270A128A1555
:101D58002D088316AC0083122E088316AD0083125B
:101D68002F088316AE006008AF00B001AF1BB003A8
:101D78006108D62F831603134208031D4A2F410812
:101D8800031D4A2FCD304002031DCE2EDD303F0209
:101D9800031DCE2E03184A2F831603134208031D72
:101DA800E22E4108031DE22E70304002031DE02E92
:101DB80009303F02031DE02E031C4A2F831603132C
:101DC80042088312B000831641088312AF008316BD
:101DD80040088312AE0083163F088312AD000A162E
:101DE8008A154F270A128A152D088316A600831212
:101DF8002E088316A70083122F088316A8004430E4
:101E0800103E8400831700088312AD00840A00087E
:101E1800AE00840A0008AF00840A0008B0000A1661
:101E28008A154F270A128A152D088316A9008312CE
:101E38002E088316AA0083122F088316AB00483099
:101E4800103E8400831700088312AD00840A00083E
:101E5800AE00840A0008AF00840A0008B0000A1621
:101E68008A154F270A128A152D088316AC0083128B
:101E78002E088316AD0083122F088316AE00610862
:101E8800AF00B001AF1BB0036208D62F831603134F
:101E98004208031DE42F01304102031D5B2F8630E9
:101EA8004002031D5B2FA1303F02031D5B2F031867
:101EB800E42F831603134208031D6F2F4108031DE7
:101EC8006F2FCD304002031D6D2FDD303F02031D03
:101ED8006D2F031CE42F8316031342088312B000EE
:101EE800831641088312AF00831640088312AE00A0
:101EF80083163F088312AD000A168A154F270A1267
:101F08008A152D088316A60083122E088316A700AB
:101F180083122F088316A8004830103E84008317C8
:101F280000088312AD00840A0008AE00840A000885
:101F3800AF00840A0008B0000A168A154F270A1253
:101F48008A152D088316A90083122E088316AA0065
:101F580083122F088316AB004C30103E8400831781
:101F680000088312AD00840A0008AE00840A000845
:101F7800AF00840A0008B0000A168A154F270A1213
:101F88008A152D088316AC0083122E088316AD001F
:101F980083122F088316AE006208AF00B001AF1B92
:101FA800B0036308B100B201B11BB2030A168A116B
:101FB80095240A128A152708BE002608BD00EA2FB4
:101FC8009C3083160313BD00FF30BE003E08831209
:101FD800AE0083163D088312AD000A168A15D22674
:101FE8002D088316B60083122E088316B7008312B5
:101FF8002F088316B8000800FF1B0A2883137F18D0
:1020080083170008840A0319FF0A080010308A00A1
:102018000408840A82070034013400340A34003486
:1020280064340034E8340334103427345034203412
:102038006934733420346F347534743420346F3415
:102048006634203462346F3475346E3464347334D7
:102058000034543420346934733420346F34753484
:10206800743420346F346634203462346F347534F9
:102078006E34643473340034503472346F346934D9
:102088006534633474342034533443344434413431
:102098002034323430343234333400344D34613403
:1020A8006334613472346934203449346F346E34A3
:1020B8000034503420343D34203425346434203402
:1020C8006234613472340034543420343D34203462
:1020D80025346434203443340034B3000812330800
:1020E8000A168A15CF2708007E088A007F08820012
:1020F80078200A168A118000840A04087D060319CC
:102108000034FF0A0319FE0A7C282C082D04031941
:10211800B628B001B00AAD1B9D2801300310AC0DE4
:10212800AD0DFF3E031D92280130FF007F08B00768
:102138008F282D082F02031DA3282C082E02031C0C
:10214800AB282C08AE022D08031CAF03AF020130E8
:102158000310AD0CAC0CFF3E031DAC280130B002DF
:10216800031D9D282F08AD002E08AC000800CD34B3
:10217800CC343D349A3499343E349A3419343F344B
:10218800CD348C343F349A34D9343F34CD340C3484
:1021980040349A343934403433345334403433344B
:1021A80073344034CD348C344034CD349C34403492
:1021B800003400340A340034143400341E3400343B
:1021C80028340034323400343C340034463400348B
:1021D800503400345A340034643400340030B000D1
:1021E8000030AF000030AE000030AD002508A90077
:1021F8002608AA002708AB002808AC000630031000
:10220800AC0CAB0CAA0CA90CFF3E031D03292C082F
:102218003002031D19292B082F02031D19292A082A
:102228002E02031D192929082D0203180800013060
:10223800AD07003003180130AE0700300318013035
:10224800AF07003003180130B007FA28A901AA0126
:102258002508260403196129AB01AB0AA61B4029EE
:1022680001300310A50DA60DFF3E031D35290130D1
:10227800FF007F08AB07322901300310A90DAA0D12
:10228800FF3E031D412926082802031D4D29250864
:102298002702031C56292508A7022608031CA803A1
:1022A800A802291401300310A60CA50CFF3E031D3B
:1022B80057290130AB02031D40292A08A600290826
:1022C800A50008006108E40001300310E40DFF3E9A
:1022D800031D69290310640D1F049F009F14063015
:1022E80083120313E5002F30E400E40B7929E50B92
:1022F80079297E29003083120313D2008030D3005D
:102308004430D4000030C300A030C4004030C500C1
:102318006808C6006908C7006A08C8000A168A1152
:10232800F0230A168A114308D5004408D600450848
:10233800D7000A168A11D82263088400520883132A
:102348008000840A53088000840A54088000E3301F
:10235800FF007F089F050800B134003400340034C2
:10236800F1340034003400344C3401340034003487
:10237800D3340134003400349B3402340034003444
:10238800CD34033400340034A4340434003400342D
:10239800B3340534003400340A34073400340034CC
:1023A800BE34083400340034EC340A3400340034C9
:1023B800C0340D3400340034623411340034003435
:1023C800263416340034003470341C34003400349D
:1023D800CC3424340034003434343F3400340034F2
:1023E8000834703400340034DC34CD340034003424
:1023F800A03486340134003473080319082A72089B
:1024080071047004031D1B2A0030F0000030F10035
:102418000030F20008000130FF007F08F3070130A8
:102428000310F20CF10CF00CFF3E031D142AFE30D1
:1024380072050319362A0F2A0130FF007F08F307B7
:102448000130F007003003180130F107003003189D
:102458000130F20701300310F20CF10CF00CFF3ED2
:10246800031D2F2AFF3072050319492A202A02303A
:102478007302031C4B2A0130F30201300310F00DE4
:10248800F10DF20DFF3E031D422AF11F3B2A73187E
:10249800532AFF30F0057F30F105FF30F2050310B5
:1024A800F30C7308F500F601F70110300310F50D71
:1024B800F60DF70DFF3E031D5A2A7508F00476083D
:1024C800F1047708F204740803190800F2170800E9
:1024D80028080319742A270826042504031D872AB7
:1024E8000030A5000030A6000030A7000800013029
:1024F800FF007F08A80701300310A70CA60CA50C45
:10250800FF3E031D802AFE3027050319A22A7B2AD5
:102518000130FF007F08A8070130A5070030031825
:102528000130A607003003180130A7070130031057
:10253800A70CA60CA50CFF3E031D9B2AFF30270500
:102548000319B52A8C2A02302802031CB72A013045
:10255800A80201300310A50DA60DA70DFF3E031D0F
:10256800AE2AA61FA72A2818BF2AFF30A5057F3044
:10257800A605FF30A7050310A80C2808AA00AB0180
:10258800AC0110300310AA0DAB0DAC0DFF3E031DBE
:10259800C62A2A08A5042B08A6042C08A70429087B
:1025A80003190800A71708005508D8005608D900CD
:1025B8005708DA000310590D5A0DDF005F08031D94
:1025C800EC2A0030D2000030D3000030D4000800DC
:1025D8005208D8005308D9005408DA000310590DDE
:1025E8005A0DE0006008031D002B0030D2000030B7
:1025F800D3000030D40008000030DC000030DD00DB
:102608000030DE0089306007D8005808DF0257081C
:10261800E0005408FF007F08E0068030FF007F08D4
:10262800E005D617FF30D505FF30D6050030D705B1
:10263800D317FF30D205FF30D3050030D40518304A
:10264800DB0001300310DC0DDD0DDE0DFF3E031D48
:10265800262B54085702031D372B53085602031D17
:10266800372B52085502031C442B5208D502530835
:10267800031C530FD6025408031C540AD7025C14D7
:1026880001300310D50DD60DD70DFF3E031D452B88
:102698000130DB02031D252B5C08A5005D08A600A0
:1026A8005E08A7005F08A8006008A9000A168A113A
:1026B8006C222508D2002608D3002708D400080079
:1026C8006108E5006208E6006308E7000310660D8C
:1026D800670D8316A5002508031D7C2B0030831287
:1026E800E4000030E3000030E2000030E1000800C0
:1026F80083126108E5006208E6006308E700173006
:102708000310E70CE60CE50CFF3E031D842B65085F
:102718008316A0008312E217FF30E105FF30E205BF
:102728000030E30561088316A1008312620883164E
:10273800A200831263088316A300A4018E30A502A9
:10274800A51FBB2B2508803A8F3E031C722B013036
:102758000310A40CA30CA20CA10CFF3E031DAC2B70
:102768000130FF007F08A5070319D22BAB2B1830C7
:1027780025020318722B25080319D22B0130831266
:10278800E50003108316A10DA20DA30DA40D83125D
:10279800E50BC52B01308316A502BF2B20080319B2
:1027A800E02BA109A209A309A409A10A0319A20AF5
:1027B8000319A30A0319A40A24088312E400831640
:1027C80023088312E300831622088312E20083168B
:1027D80021088312E10008004308C9004408CA0020
:1027E8004508CB0003104A0D4B0DCC004C08031DC7
:1027F800042C0030C3000030C4000030C5000800BD
:102808004608C9004708CA004808CB0003104A0D0B
:102818004B0DD1005108031D182C0030C3000030A7
:10282800C4000030C500080051087B3EFF007F0847
:10283800CC074508D1004808FF007F08D106803042
:10284800FF007F08D105C417C717FF30C605FF3042
:10285800C7050030C8050030CD000030CE0000307C
:10286800CF000730D000431C472C4608CD07470847
:1028780003110318470A031DCE074808031103185C
:10288800480A031DCF0701300310C50CC40CC30C44
:10289800FF3E031D482C01300310C60DC70DC80D9F
:1028A800FF3E031D502C0130D002031D372C093088
:1028B800D000431C6D2C4608CD07470803110318A8
:1028C800470A031DCE07480803110318480A031DC9
:1028D800CF0701300310C50CC40CC30CFF3E031D09
:1028E8006E2C01300310CF0CCE0CCD0CFF3E031D17
:1028F800762C0130D002031D5D2C4D08A5004E0832
:10290800A6004F08A7004C08A8005108A9000A16FD
:102918008A116C222508C3002608C4002708C500B0
:1029280008002F0831028312AD0083163008031CFB
:10293800300A32028312AE000A168A15D2260A1607
:102948008A112D08D5002E08D6002F08D700831627
:102958002C088312C00083162D088312C100831629
:102968002E088312C200831629088312BD0083161D
:102978002A088312BE0083162B088312BF000A168A
:102988008A15EF260A168A113D08D2003E08D300A0
:102998003F08D4000A168A11D8220A168A1152084A
:1029A800C6005308C7005408C800831626088312B7
:1029B800C000831627088312C100831628088312D3
:1029C800C200831629088312BD0083162A088312C1
:1029D800BE0083162B088312BF000A168A15EF263D
:1029E8000A168A113D08C3003E08C4003F08C50006
:1029F8000A168A11F0230A168A1143088316B300AF
:102A0800831244088316B400831245088316B50060
:102A180030088312AE0083162F088312AD000A1601
:102A28008A15D2260A168A112D08B4002E08B50078
:102A38002F08B600831633088312B10083163408B2
:102A48008312B200831635088312B3000A168A115E
:102A580005270A168A113108E1003208E200330816
:102A6800E3000A168A11642362088316A7008312FA
:102A780061088316A60008003430B9000130B30796
:102A8800FF30330784000A168A110A200A168A11B1
:102A9800BE003E080319042E25303E060319622D98
:102AA800310884008317321C83133E0880000130EC
:102AB800B1070318B20A0030B207422DBA0101303B
:102AC800B307FF30330784000A168A110A200A1652
:102AD8008A11BE00003A0319042E643A0319782DAE
:102AE8000D3A0319782D422D390884008313000804
:102AF800BC00840A0008BD000230FF007F08B90747
:102B0800BD1F8F2D0330FF007F08BA04BC09BD0923
:102B1800BC0A0319BD0ABE01BE0A3E08B600360744
:102B2800013E84000A168A110A200A168A11B70083
:102B38000A168A110A200A168A11B80038083D02B6
:102B4800031DA82D37083C02031CB22D0130FF00DD
:102B58007F08BE0705303E06031D912D3A0803394C
:102B68000319C32D310884008317321C83132D30B9
:102B780080000130B1070318B20A0030B2073E08DE
:102B8800BB00FF30FF007F08BB073B0A0319422D3B
:102B98000A30AC000030AD003B08B6003607013EF5
:102BA80084000A168A110A200A168A11A5000A1634
:102BB8008A110A200A168A11A6003D08A8003C08B6
:102BC800A7000A168A112A210A168A112608AF00B8
:102BD8002508AE000A168A1189200A168A112C08BF
:102BE800303EBE00310884008317321C83133E0830
:102BF80080000130B1070318B20A0030B207C52DB2
:102C0800310884008317321C83138001080083165F
:102C1800CE01CF010A128A1500200A168A110A125B
:102C28008A113E270A168A11153083160313C50028
:102C38004B30C400BD30C300C30B202EC40B202E64
:102C4800C50B202E272E0A168A15AD260A168A11BC
:102C58000030E100E200E430E3000A168A11662140
:102C68000A168A11E4300A128A1518200A168A11DF
:102C78003608C6003708C7003808C8004608831257
:102C8800E100831647088312E2008316480883127E
:102C9800E3000A168A1164230A168A116208831649
:102CA800CD00831261088316CC009C304C06031DAE
:102CB8006D2E4D0A031D6D2EC6308312A5000030FF
:102CC800A6000B30A7000A168A150C270A168A11C7
:102CD800812EC6308312B1000030B2004E30B300EE
:102CE80083164D088312B50083164C088312B4006E
:102CF8000A168A1140250A168A1180300A168A1186
:102D080071200A168A11C630B3000030B4000A16C2
:102D18008A152D270A168A110130E1000030E200D9
:102D2800E730E3000A168A1166210A168A11E7308D
:102D38000A128A1149200A168A113608C90037086A
:102D4800CA003808CB0049088312E10083164A08F4
:102D58008312E20083164B088312E3000A168A11D5
:102D680064230A168A1162088316CF008312610849
:102D78008316CE009C304E06031DD22E4F0A031D2B
:102D8800D22EC6308312A5000030A6001E30A70040
:102D98000A168A150C270A168A11E62EC6308312DF
:102DA800B1000030B2005930B30083164F088312C7
:102DB800B50083164E088312B4000A168A114025FE
:102DC8000A168A1194300A168A1171200A168A1175
:102DD800C630B3000030B4000A168A152D270A162B
:102DE8008A11053083160313C5000F30C400F03074
:102DF800C300C30BFD2EC40BFD2EC50BFD2E00001A
:102E0800272E3108B7003208B8003308B90003107C
:102E1800380D390DBC003408B7003508B80036083D
:102E2800B9000310380D390DBB003C080319282FD1
:102E38003B083C0203182F2F3B08B7003C08B70299
:102E480019303702031C2F2F3408B1003508B2009F
:102E58003608B30008003B08031908003C083B0289
:102E680003183E2F3C08B7003B08B7021930370259
:102E7800031808000630BA00B31BBA17B61B3A1776
:102E8800B217FF30B105FF30B2050030B305B517F2
:102E9800FF30B405FF30B5050030B6053B083C02ED
:102EA80003187C2F01300310B40DB50DB60DFF3E8D
:102EB800031D572F0130BB023B083C060319772F2F
:102EC8000130BA023A0807390319772F562F013013
:102ED8000310B30CB20CB10CFF3E031D6C2F013074
:102EE800FF007F08BC073C083B060319A52F6B2F82
:102EF8003C083B020318A52F01300310B10DB20D99
:102F0800B30DFF3E031D812F0130BC023B083C0678
:102F18000319A12F0130BA023A0807390319A12F62
:102F2800802F01300310B60CB50CB40CFF3E031D06
:102F3800962F0130FF007F08BB073C083B06031DA6
:102F4800952FBA1FB72FFF30B106FF30B206FF30FA
:102F5800B3060130B107003003180130B207003062
:102F680003180130B3073A1FC92FFF30B406FF30EA
:102F7800B506FF30B6060130B4070030031801303B
:102F8800B507003003180130B607BA013108B40795
:102F9800320803110318320A031DB5073308031159
:102FA8000318330A031DB607B61FEC2FFF30B4060B
:102FB800FF30B506FF30B6060130B40700300318FD
:102FC8000130B507003003180130B607BA01BA0A54
:102FD8003408A5003508A6003608A7003C08A80054
:102FE8003A08A9000A168A116C222508B100260899
:082FF800B2002708B300080035
:103D5A0083120313081201300A168A15CF270800A6
:103D6A00FB01F91FBF2EF809F909F80A0319F90A24
:103D7A00FB01FB0A7808F0007908F100F2018E30A5
:103D8A00F3007B08F4000A168A1100227008F80072
:103D9A007108F9007208FA000800B001AE1FDC2EA3
:103DAA00AD09AE09AD0A0319AE0AB001B00A2D0871
:103DBA00A5002E08A600A7018E30A8003008A90089
:103DCA000A168A116C222508AD002608AE002708BB
:103DDA00AF0008003F083E043D040319F62E803068
:103DEA00BF064008B1004108B2004208B3003D08CE
:103DFA00B4003E08B5003F08B6000A168A11052726
:103E0A003108BD003208BE003308BF00080025088B
:103E1A00A8002608A900270884000A168A110A2081
:103E2A000A168A15FF00280884008317291C8313A1
:103E3A007F0880000008031908000130A80703184A
:103E4A00A90A0030A9070130FF007F08A707102F31
:103E5A0008163408FF00330884000A168A11002065
:103E6A000A168A15003A031908003408FF003308B5
:103E7A0084000A168A1100200A168A150A168A155B
:103E8A00CF270A168A150130B3070318B40A00307F
:103E9A00B4072E2F8E30B100FF3030050319632F7F
:103EAA0001300310B00CAF0CAE0CAD0CFF3E031D7D
:103EBA00562F0130FF007F08B107512F2D08A500AA
:103ECA002E08A6002F08A7003108A800A9010A1683
:103EDA008A116C222508AD002608AE002708AF001B
:103EEA0008000C1F982F83160C1F982F83120C138F
:103EFA001E08A000A1012008A100A00183161E0827
:103F0A0083122007F8000030031801302107F90056
:103F1A000A168A15B5260A168A157808E800790855
:103F2A00E9007A08EA0083122408FF0023088A00BD
:103F3A00220E8300FE0E7E0E0900A71FB12F250850
:103F4A00003CA5002608031C260F003CA6002708F3
:103F5A00031C270F803CA700AA1FC02F2808003C7B
:103F6A00A8002908031C290F003CA9002A08031CE1
:103F7A002A0F803CAA008030A7068030AA062A08A9
:103F8A002702031D080029082602031D0800280825
:103F9A0025020800B2003208B10004300310B10C47
:103FAA00FF3E031DD32F0808F03931048800881614
:103FBA000030A8000030A7000030A6000130A5009C
:103FCA000A168A11F2200A168A1588120F3032054B
:103FDA00B1000808F0393104880088160030A800BA
:103FEA000030A7000030A6000130A5000A168A1189
:063FFA00F220881208000D
:04400E00D420FF3883
:00000001FF
