:060000000A128A11C52F4F
:10000A00033003178900803003139F0041308312A5
:10001A009F000800CA004A08840083130008CB0026
:10002A00840A0008CC00840A0008CD004B08831219
:10003A00B50083164C088312B60083164D08831246
:10004A00B7000030B2007A30B3004430B4000A1668
:10005A008A119B260A128A113208C4003308C50085
:10006A003408C6000030AF00A030B0004030B10004
:10007A0083164B088312AC0083164C088312AD001A
:10008A0083164D088312AE000A168A1141210A12FC
:10009A008A112C08C1002D08C2002E08C3000A16B6
:1000AA008A110D260A128A114108D0004208D1008D
:1000BA004308D2000A168A1113250A128A11530814
:1000CA008316D300831252088316D2008312510872
:1000DA008316D100831250088316D0005308031DDB
:1000EA00E8285208031DE8285108031DE828F230C1
:1000FA005002031D80280318E828831603135308A7
:10010A00031D93285208031D93285108031D9328A1
:10011A00B2305002031D9128031CE82883160313EA
:10012A005308FB005208FA005108F9005008F80079
:10013A000A168A11A1210A128A1178088312031356
:10014A00DD007908DE007A08DF0003171308FB00D8
:10015A001208FA001108F9001008F8000A168A11A4
:10016A00A1210A128A11780883120313E000790880
:10017A00E1007A08E2000430103E84008317000888
:10018A00F800840A0008F900840A0008FA00840AC0
:10019A000008FB000A168A11A1210A128A1178089E
:1001AA0083120313E3007908E4007A08E500831652
:1001BA0036088312E600E701E61BE70383163708D1
:1001CA000A128A153D2C831603135308031D64294A
:1001DA005208031D642901305102031DF8284D30CD
:1001EA005002031DF82803186429831603135308C1
:1001FA00031D0B295208031D0B295108031D0B2946
:10020A00F2305002031D0929031C642983160313C3
:10021A005308FB005208FA005108F9005008F80088
:10022A000A168A11A1210A128A1178088312031365
:10023A00DD007908DE007A08DF000430103E840011
:10024A0083170008F800840A0008F900840A0008E5
:10025A00FA00840A0008FB000A168A11A1210A1270
:10026A008A11780883120313E0007908E1007A08FA
:10027A00E2000830103E840083170008F800840A60
:10028A000008F900840A0008FA00840A0008FB0042
:10029A000A168A11A1210A128A11780883120313F5
:1002AA00E3007908E4007A08E50083163708831228
:1002BA00E600E701E61BE70383163808E5280A1279
:1002CA008A116729831603135308031DE629520866
:1002DA00031DE62901305102031D7729D43050024B
:1002EA00031D77290318E629831603135308031DF0
:1002FA008B295208031D8B2901305102031D8929BC
:10030A004D305002031D8929031CE6298316031365
:10031A005308FB005208FA005108F9005008F80087
:10032A000A168A11A1210A128A1178088312031364
:10033A00DD007908DE007A08DF000830103E84000C
:10034A0083170008F800840A0008F900840A0008E4
:10035A00FA00840A0008FB000A168A11A1210A126F
:10036A008A11780883120313E0007908E1007A08F9
:10037A00E2000C30103E840083170008F800840A5B
:10038A000008F900840A0008FA00840A0008FB0041
:10039A000A168A11A1210A128A11780883120313F4
:1003AA00E3007908E4007A08E50083163808831226
:1003BA00E600E701E61BE703831639080A128A15E5
:1003CA003D2C831603135308031D632A5208031D89
:1003DA00632A02305102031DF6299C305002031D84
:1003EA00F6290318632A831603135308031D0A2ADE
:1003FA005208031D0A2A01305102031D082AD4306B
:10040A005002031D082A031C632A83160313530888
:10041A00FB005208FA005108F9005008F8000A16C1
:10042A008A11A1210A128A11780883120313DD00A6
:10043A007908DE007A08DF000C30103E840083174A
:10044A000008F800840A0008F900840A0008FA0083
:10045A00840A0008FB000A168A11A1210A128A11CD
:10046A00780883120313E0007908E1007A08E200B1
:10047A001030103E840083170008F800840A000830
:10048A00F900840A0008FA00840A0008FB000A1628
:10049A008A11A1210A128A11780883120313E30030
:1004AA007908E4007A08E500831639088312E60021
:1004BA00E701E61BE70383163A08E32983160313C9
:1004CA005308031DE02A5208031DE02A0330510293
:1004DA00031D732ACE305002031D732A0318E02A23
:1004EA00831603135308031D872A5208031D872AFC
:1004FA0002305102031D852A9C305002031D852AB1
:10050A00031CE02A831603135308FB005208FA005F
:10051A005108F9005008F8000A168A11A1210A1296
:10052A008A11780883120313DD007908DE007A083D
:10053A00DF001030103E840083170008F800840A98
:10054A000008F900840A0008FA00840A0008FB007F
:10055A000A168A11A1210A128A1178088312031332
:10056A00E0007908E1007A08E2001430103E8400C5
:10057A0083170008F800840A0008F900840A0008B2
:10058A00FA00840A0008FB000A168A11A1210A123D
:10059A008A11780883120313E3007908E4007A08C1
:1005AA00E50083163A088312E600E701E61BE70333
:1005BA0083163B08E329831603135308031D5D2B97
:1005CA005208031D5D2B04305102031DF02AA53089
:1005DA005002031DF02A03185D2B831603135308D8
:1005EA00031D042B5208031D042B03305102031D63
:1005FA00022BCE305002031D022B031C5D2B8316E7
:10060A0003135308FB005208FA005108F900500876
:10061A00F8000A168A11A1210A128A11780883128F
:10062A000313DD007908DE007A08DF001430103E7B
:10063A00840083170008F800840A0008F900840A75
:10064A000008FA00840A0008FB000A168A11A12190
:10065A000A128A11780883120313E0007908E1006C
:10066A007A08E2001830103E840083170008F80068
:10067A00840A0008F900840A0008FA00840A0008BB
:10068A00FB000A168A11A1210A128A11780883121C
:10069A000313E3007908E4007A08E50083163B08AF
:1006AA008312E600E701E61BE70383163C08E32909
:1006BA00831603135308031DDA2B5208031DDA2B82
:1006CA0005305102031D6D2BB4305002031D6D2BF2
:1006DA000318DA2B831603135308031D812B5208C0
:1006EA00031D812B04305102031D7F2BA5305002BC
:1006FA00031D7F2B031CDA2B831603135308FB00FD
:10070A005208FA005108F9005008F8000A168A112E
:10071A00A1210A128A11780883120313DD007908CD
:10072A00DE007A08DF001830103E840083170008C4
:10073A00F800840A0008F900840A0008FA00840A0A
:10074A000008FB000A168A11A1210A128A117808E8
:10075A0083120313E0007908E1007A08E2001C30F2
:10076A00103E840083170008F800840A0008F90084
:10077A00840A0008FA00840A0008FB000A168A1193
:10078A00A1210A128A11780883120313E300790857
:10079A00E4007A08E50083163C088312E600E701C4
:1007AA00E61BE70383163D08E32983160313530860
:1007BA00031D572C5208031D572C07305102031DE5
:1007CA00EA2B0B305002031DEA2B0318572C831611
:1007DA0003135308031DFE2B5208031DFE2B05307D
:1007EA005102031DFC2BB4305002031DFC2B031CC9
:1007FA00572C831603135308FB005208FA005108BA
:10080A00F9005008F8000A168A11A1210A128A1161
:10081A00780883120313DD007908DE007A08DF0006
:10082A001C30103E840083170008F800840A000870
:10083A00F900840A0008FA00840A0008FB000A1674
:10084A008A11A1210A128A11780883120313E0007F
:10085A007908E1007A08E2002030103E840083170C
:10086A000008F800840A0008F900840A0008FA005F
:10087A00840A0008FB000A168A11A1210A128A11A9
:10088A00780883120313E3007908E4007A08E50084
:10089A0083163D088312E600E701E61BE703831689
:1008AA003E08E329831603135308031DD42C520868
:1008BA00031DD42C08305102031D672CBF3050028F
:1008CA00031D672C0318D42C831603135308031D26
:1008DA007B2C5208031D7B2C07305102031D792CF7
:1008EA000B305002031D792C031CD42C83160313DE
:1008FA005308FB005208FA005108F9005008F800A2
:10090A000A168A11A1210A128A117808831203137E
:10091A00DD007908DE007A08DF002030103E84000E
:10092A0083170008F800840A0008F900840A0008FE
:10093A00FA00840A0008FB000A168A11A1210A1289
:10094A008A11780883120313E0007908E1007A0813
:10095A00E2002430103E840083170008F800840A5D
:10096A000008F900840A0008FA00840A0008FB005B
:10097A000A168A11A1210A128A117808831203130E
:10098A00E3007908E4007A08E50083163E0883123A
:10099A00E600E701E61BE70383163F08E32983160F
:1009AA0003135308031D512D5208031D512D0A30FC
:1009BA005102031DE42CED305002031DE42C0318F0
:1009CA00512D831603135308031DF82C5208031DD7
:1009DA00F82C08305102031DF62CBF305002031DBB
:1009EA00F62C031C512D831603135308FB005208DF
:1009FA00FA005108F9005008F8000A168A11A121D4
:100A0A000A128A11780883120313DD007908DE00BE
:100A1A007A08DF002430103E840083170008F800AB
:100A2A00840A0008F900840A0008FA00840A000807
:100A3A00FB000A168A11A1210A128A117808831268
:100A4A000313E0007908E1007A08E2002830103E3A
:100A5A00840083170008F800840A0008F900840A51
:100A6A000008FA00840A0008FB000A168A11A1216C
:100A7A000A128A11780883120313E3007908E40042
:100A8A007A08E50083163F088312E600E701E61BB1
:100A9A00E70383164008E329831603135308031D4B
:100AAA00CE2D5208031DCE2D0D305102031D612D8E
:100ABA00C1305002031D612D0318CE2D8316031376
:100ACA005308031D752D5208031D752D0A30510256
:100ADA00031D732DED305002031D732D031CCE2D03
:100AEA00831603135308FB005208FA005108F90051
:100AFA005008F8000A168A11A1210A128A117808E8
:100B0A0083120313DD007908DE007A08DF0028303B
:100B1A00103E840083170008F800840A0008F900D0
:100B2A00840A0008FA00840A0008FB000A168A11DF
:100B3A00A1210A128A11780883120313E0007908A6
:100B4A00E1007A08E2002C30103E84008317000886
:100B5A00F800840A0008F900840A0008FA00840AE6
:100B6A000008FB000A168A11A1210A128A117808C4
:100B7A0083120313E3007908E4007A08E500831678
:100B8A0040088312E600E701E61BE70383164108E3
:100B9A00E329831603135308031D4B2E5208031D22
:100BAA004B2E11305102031DDE2D63305002031DFE
:100BBA00DE2D03184B2E831603135308031DF22D43
:100BCA005208031DF22D0D305102031DF02DC130C4
:100BDA005002031DF02D031C4B2E831603135308DA
:100BEA00FB005208FA005108F9005008F8000A16EA
:100BFA008A11A1210A128A11780883120313DD00CF
:100C0A007908DE007A08DF002C30103E8400831752
:100C1A000008F800840A0008F900840A0008FA00AB
:100C2A00840A0008FB000A168A11A1210A128A11F5
:100C3A00780883120313E0007908E1007A08E200D9
:100C4A003030103E840083170008F800840A000838
:100C5A00F900840A0008FA00840A0008FB000A1650
:100C6A008A11A1210A128A11780883120313E30058
:100C7A007908E4007A08E500831641088312E60041
:100C8A00E701E61BE70383164208E32983160313E9
:100C9A005308031DC82E5208031DC82E16305102D0
:100CAA00031D5B2E27305002031D5B2E0318C82E2E
:100CBA00831603135308031D6F2E5208031D6F2E4C
:100CCA0011305102031D6D2E63305002031D6D2E2B
:100CDA00031CC82E831603135308FB005208FA009C
:100CEA005108F9005008F8000A168A11A1210A12BF
:100CFA008A11780883120313DD007908DE007A0866
:100D0A00DF003030103E840083170008F800840AA0
:100D1A000008F900840A0008FA00840A0008FB00A7
:100D2A000A168A11A1210A128A117808831203135A
:100D3A00E0007908E1007A08E2003430103E8400CD
:100D4A0083170008F800840A0008F900840A0008DA
:100D5A00FA00840A0008FB000A168A11A1210A1265
:100D6A008A11780883120313E3007908E4007A08E9
:100D7A00E500831642088312E600E701E61BE70353
:100D8A0083164308E329831603135308031D452FCB
:100D9A005208031D452F1C305102031DD82E7130F5
:100DAA005002031DD82E0318452F83160313530828
:100DBA00031DEC2E5208031DEC2E16305102031DA2
:100DCA00EA2E27305002031DEA2E031C452F8316F4
:100DDA0003135308FB005208FA005108F90050089F
:100DEA00F8000A168A11A1210A128A1178088312B8
:100DFA000313DD007908DE007A08DF003430103E84
:100E0A00840083170008F800840A0008F900840A9D
:100E1A000008FA00840A0008FB000A168A11A121B8
:100E2A000A128A11780883120313E0007908E10094
:100E3A007A08E2003830103E840083170008F80070
:100E4A00840A0008F900840A0008FA00840A0008E3
:100E5A00FB000A168A11A1210A128A117808831244
:100E6A000313E3007908E4007A08E50083164308CF
:100E7A008312E600E701E61BE70383164408E32929
:100E8A00831603135308031DC22F5208031DC22FD2
:100E9A0024305102031D552FCD305002031D552F0A
:100EAA000318C22F831603135308031D692F520810
:100EBA00031D692F1C305102031D672F7130500228
:100ECA00031D672F031CC22F831603135308FB004D
:100EDA005208FA005108F9005008F8000A168A1157
:100EEA00A1210A128A11780883120313DD007908F6
:100EFA00DE007A08DF003830103E840083170008CD
:100F0A00F800840A0008F900840A0008FA00840A32
:100F1A000008FB000A168A11A1210A128A11780810
:100F2A0083120313E0007908E1007A08E2003C30FA
:100F3A00103E840083170008F800840A0008F900AC
:100F4A00840A0008FA00840A0008FB000A168A11BB
:100F5A00A1210A128A11780883120313E30079087F
:100F6A00E4007A08E500831644088312E600E701E4
:100F7A00E61BE70383164508E3290A128A15492A5C
:100F8A008317B130FD001130FE005E30FF00903053
:100F9A0084000A168A11FB200A128A116030FD00A9
:100FAA001330FE001F30FF00103084000A168A1129
:100FBA00FB200A128A118313CA30FD001130FE0089
:100FCA00F130FF00A03084000A168A11FB200A12B1
:100FDA008A118317B1308400C5300A128A15852018
:100FEA008316DC01DD01DE01DF01E001E10183019D
:100FFA000A168A11C829FF1B0A2883137F18831728
:10100A000008840A0319FF0A080008308A00040845
:10101A00840A82070034013400340A340034643408
:10102A000034E834033410342734503420343D3447
:10103A0020342534643420346234613472342034E8
:10104A0020342034203420342034203420342034F6
:10105A0020340034543420343D342034253464346C
:10106A0020344334203420342034203420342034B3
:10107A00203420342034203400345034203469346D
:10108A00733420346F347534743420346F346634D6
:10109A00203462346F3475346E34643473340034FB
:1010AA00543420346934733420346F3475347434CE
:1010BA0020346F346634203462346F3475346E34BD
:1010CA00643473340034503472346F3469346534A0
:1010DA006334743420345334433444344134203434
:1010EA00323430343234333400344D34613463347E
:1010FA00613472346934203449346F346E340034C4
:10110A0064008001840A0406031900340406862850
:10111A000030F3000030F2000730F100D030F00068
:10112A000A168A11AB220A128A152C300A168A115B
:10113A0048220A128A150030F3000030F20000300B
:10114A00F1006430F0000A168A11AB220A128A15DD
:10115A000A168A11E1200A128A150030F3000030BB
:10116A00F2000B30F100B830F0000A168A11AB22F7
:10117A000A128A1502300A168A1148220A128A1598
:10118A000030F3000030F2000730F100D030F000F8
:10119A000A168A11AB220A128A1506300A168A1111
:1011AA0048220A128A150030F3000030F20000309B
:1011BA00F1006430F0000A168A11AB220A128A156D
:1011CA000C300A168A1148220A128A150030F300D6
:1011DA000030F2000030F1006430F0000A168A1183
:1011EA00AB220A128A1510300A168A1148220A12EC
:1011FA008A150030F3000030F2000030F10064304C
:10120A00F0000A168A11AB220A128A152C300A1625
:10121A008A1148220A128A150030F3000030F200BF
:10122A000030F1006430F0000A168A11AB220A126B
:10123A008A1580300A168A11E7200A128A1559304F
:10124A00A0008030A1000A168A117F210A128A158D
:10125A0094300A168A11E7200A128A156B30A00008
:10126A008030A1000A168A117F210A128A151530C8
:10127A0083120313A4004B30A300BD30A200A20BBB
:10128A004429A30B4429A40B44294B29080020080C
:10129A00A6002108A7002208A8000310270D280D80
:1012AA00AB002308A6002408A7002508A8000310FD
:1012BA00270D280DAA002B0803196F292A082B02CB
:1012CA00031876292A08A6002B08A6021930260236
:1012DA00031C76292308A0002408A1002508A200DF
:1012EA0008002A08031908002B082A02031885296E
:1012FA002B08A6002A08A60219302602031808009D
:10130A000630A900A21BA917A51B2917A117FF3090
:10131A00A005FF30A1050030A205A417FF30A305E0
:10132A00FF30A4050030A5052A082B020318C3299B
:10133A0001300310A30DA40DA50DFF3E031D9E2928
:10134A000130AA022A082B060319BE290130A90274
:10135A00290807390319BE299D2901300310A20C57
:10136A00A10CA00CFF3E031DB3290130FF007F082A
:10137A00AB072B082A060319EC29B2292B082A02E3
:10138A000318EC2901300310A00DA10DA20DFF3E98
:10139A00031DC8290130AB022A082B060319E829C4
:1013AA000130A902290807390319E829C729013098
:1013BA000310A50CA40CA30CFF3E031DDD2901306C
:1013CA00FF007F08AA072B082A06031DDC29A91F8C
:1013DA00FE29FF30A006FF30A106FF30A206013029
:1013EA00A007003003180130A107003003180130AC
:1013FA00A207291F102AFF30A306FF30A406FF30D8
:10140A00A5060130A307003003180130A4070030F5
:10141A0003180130A507A9012008A3072108031111
:10142A000318210A031DA407220803110318220A1C
:10143A00031DA507A51F332AFF30A306FF30A40604
:10144A00FF30A5060130A307003003180130A407B6
:10145A00003003180130A507A901A90A2308F000E2
:10146A002408F1002508F2002B08F3002908F400EB
:10147A000A168A113B24700883120313A00071080C
:10148A00A1007208A2000800831603135308031D63
:10149A00C62A5208031DC62A3F305102031D592A83
:1014AA0035305002031D592A0318C62A831603131E
:1014BA005308031D6D2A5208031D6D2A2430510258
:1014CA00031D6B2ACD305002031D6B2A031CC62A4A
:1014DA00831603135308FB005208FA005108F90057
:1014EA005008F8000A168A11A1210A128A157808EA
:1014FA0083120313DD007908DE007A08DF003C302E
:10150A00103E840083170008F800840A0008F900D6
:10151A00840A0008FA00840A0008FB000A168A11E5
:10152A00A1210A128A15780883120313E0007908A8
:10153A00E1007A08E2004030103E84008317000878
:10154A00F800840A0008F900840A0008FA00840AEC
:10155A000008FB000A168A11A1210A128A157808C6
:10156A0083120313E3007908E4007A08E50083167E
:10157A0045088312E600E701E61BE70383164608DF
:10158A003D2C831603135308031D432B5208031DD6
:10159A00432B70305102031DD62A09305002031D15
:1015AA00D62A0318432B831603135308031DEA2A6A
:1015BA005208031DEA2A3F305102031DE82A35303A
:1015CA005002031DE82A031C432B831603135308F6
:1015DA00FB005208FA005108F9005008F8000A16F0
:1015EA008A11A1210A128A15780883120313DD00D1
:1015FA007908DE007A08DF004030103E8400831745
:10160A000008F800840A0008F900840A0008FA00B1
:10161A00840A0008FB000A168A11A1210A128A15F7
:10162A00780883120313E0007908E1007A08E200DF
:10163A004430103E840083170008F800840A00082A
:10164A00F900840A0008FA00840A0008FB000A1656
:10165A008A11A1210A128A15780883120313E3005A
:10166A007908E4007A08E500831646088312E60042
:10167A00E701E61BE703831647083D2C831603138D
:10168A005308031DC02B5208031DC02BCD30510235
:10169A00031D532BDD305002031D532B0318C02B9F
:1016AA00831603135308031D672B5208031D672B68
:1016BA0070305102031D652B09305002031D652B42
:1016CA00031CC02B831603135308FB005208FA00AD
:1016DA005108F9005008F8000A168A11A1210A12C5
:1016EA008A15780883120313DD007908DE007A0868
:1016FA00DF004430103E840083170008F800840A93
:10170A000008F900840A0008FA00840A0008FB00AD
:10171A000A168A11A1210A128A157808831203135C
:10172A00E0007908E1007A08E2004830103E8400BF
:10173A0083170008F800840A0008F900840A0008E0
:10174A00FA00840A0008FB000A168A11A1210A126B
:10175A008A15780883120313E3007908E4007A08EB
:10176A00E500831647088312E600E701E61BE70354
:10177A00831648083D2C831603135308031D4F2C68
:10178A0001305202031DD12B86305102031DD12B89
:10179A00A1305002031DD12B03184F2C83160313BB
:1017AA005308031DE52B5208031DE52BCD305102CA
:1017BA00031DE32BDD305002031DE32B031C4F2CCA
:1017CA00831603135308FB005208FA005108F90064
:1017DA005008F8000A168A11A1210A128A157808F7
:1017EA0083120313DD007908DE007A08DF0048302F
:1017FA00103E840083170008F800840A0008F900E4
:10180A00840A0008FA00840A0008FB000A168A11F2
:10181A00A1210A128A15780883120313E0007908B5
:10182A00E1007A08E2004C30103E84008317000879
:10183A00F800840A0008F900840A0008FA00840AF9
:10184A000008FB000A168A11A1210A128A157808D3
:10185A0083120313E3007908E4007A08E50083168B
:10186A0048088312E600E701E61BE70383164908E6
:10187A008312E800E901E81BE9030A168A118A259E
:10188A000A128A155E088316CF0083125D08831632
:10189A00CE00552C9C3083160313CE00FF30CF00A8
:1018AA004F08F9004E08F8000A168A112421780810
:1018BA0083120313ED007908EE007A08EF0008009E
:1018CA00CA004A08840083130008CD00840A00086D
:1018DA00CE00840A0008CF009A30F0009930F10057
:1018EA003E30F2004D08F3004E08F4004F08F500B0
:1018FA000A168A111B220A128A15031CCF2CCD3014
:10190A00F000CC30F1003D30F2004D08F3004E08F3
:10191A00F4004F08F5000A168A111B220A128A15CA
:10192A000318CF2C4D088312DD0083164E0883124C
:10193A00DE0083164F088312DF0083160317100890
:10194A0083120313E000831603171108831203138B
:10195A00E10083160317120883120313E20003300F
:10196A00903E840083170008E300840A0008E4001C
:10197A00840A0008E500831621088312E70083160B
:10198A0020088312E600831623088312E9008316CF
:10199A002208DD2F9A30F0001930F1003F30F200B2
:1019AA004D08F3004E08F4004F08F5000A168A1194
:1019BA001B220A128A15031C262D9A30F000993030
:1019CA00F1003E30F2004D08F3004E08F4004F08D3
:1019DA00F5000A168A111B220A128A150318262DE7
:1019EA004D088312DD0083164E088312DE0083162B
:1019FA004F088312DF000330903E840083170008EB
:101A0A00E000840A0008E100840A0008E2000630C7
:101A1A00903E84000008E300840A0008E400840A77
:101A2A000008E500831623088312E70083162208BC
:101A3A008312E600831625088312E9008316240818
:101A4A00DD2FCD30F0008C30F1003F30F2004D0830
:101A5A00F3004E08F4004F08F5000A168A111B22FB
:101A6A000A128A15031C7D2D9A30F0001930F100F4
:101A7A003F30F2004D08F3004E08F4004F08F5001D
:101A8A000A168A111B220A128A1503187D2D4D087F
:101A9A008312DD0083164E088312DE0083164F0878
:101AAA008312DF000630903E840083170008E000AE
:101ABA00840A0008E100840A0008E2000930903E26
:101ACA0084000008E300840A0008E400840A00088D
:101ADA00E500831625088312E7008316240883127B
:101AEA00E600831627088312E90083162608DD2FED
:101AFA009A30F000D930F1003F30F2004D08F3007F
:101B0A004E08F4004F08F5000A168A111B220A1221
:101B1A008A15031CD42DCD30F0008C30F1003F30F3
:101B2A00F2004D08F3004E08F4004F08F5000A16BB
:101B3A008A111B220A128A150318D42D4D08831202
:101B4A00DD0083164E088312DE0083164F088312C7
:101B5A00DF000930903E840083170008E000840A01
:101B6A000008E100840A0008E2000C30903E84007C
:101B7A000008E300840A0008E400840A0008E5007B
:101B8A00831627088312E700831626088312E600C5
:101B9A00831629088312E90083162808DD2FCD3021
:101BAA00F0000C30F1004030F2004D08F3004E080E
:101BBA00F4004F08F5000A168A111B220A128A1528
:101BCA00031C2B2E9A30F000D930F1003F30F2007E
:101BDA004D08F3004E08F4004F08F5000A168A1162
:101BEA001B220A128A1503182B2E4D088312DD00B8
:101BFA0083164E088312DE0083164F088312DF0015
:101C0A000C30903E840083170008E000840A000824
:101C1A00E100840A0008E2000F30903E84000008C8
:101C2A00E300840A0008E400840A0008E500831639
:101C3A0029088312E700831628088312E600831610
:101C4A002B088312E90083162A08DD2F9A30F00048
:101C5A003930F1004030F2004D08F3004E08F4002C
:101C6A004F08F5000A168A111B220A128A15031C4C
:101C7A00822ECD30F0000C30F1004030F2004D08D9
:101C8A00F3004E08F4004F08F5000A168A111B22C9
:101C9A000A128A150318822E4D088312DD00831654
:101CAA004E088312DE0083164F088312DF000F30BE
:101CBA00903E840083170008E000840A0008E100CF
:101CCA00840A0008E2001230903E84000008E30013
:101CDA00840A0008E400840A0008E50083162B0839
:101CEA008312E70083162A088312E60083162D085A
:101CFA008312E90083162C08DD2F3330F0005330AD
:101D0A00F1004030F2004D08F3004E08F4004F088D
:101D1A00F5000A168A111B220A128A15031CD92EEB
:101D2A009A30F0003930F1004030F2004D08F300EB
:101D3A004E08F4004F08F5000A168A111B220A12EF
:101D4A008A150318D92E4D088312DD0083164E0812
:101D5A008312DE0083164F088312DF001230903E92
:101D6A00840083170008E000840A0008E100840A5E
:101D7A000008E2001530903E84000008E300840A5F
:101D8A000008E400840A0008E50083162D0883127F
:101D9A00E70083162C088312E60083162F088312A5
:101DAA00E90083162E08DD2F3330F0007330F1007E
:101DBA004030F2004D08F3004E08F4004F08F500D9
:101DCA000A168A111B220A128A15031C302F333075
:101DDA00F0005330F1004030F2004D08F3004E0895
:101DEA00F4004F08F5000A168A111B220A128A15F6
:101DFA000318302F4D088312DD0083164E08831214
:101E0A00DE0083164F088312DF001530903E8400EF
:101E1A0083170008E000840A0008E100840A000829
:101E2A00E2001830903E84000008E300840A0008AB
:101E3A00E400840A0008E50083162F088312E700ED
:101E4A0083162E088312E600831631088312E900EE
:101E5A0083163008DD2FCD30F0008C30F100403091
:101E6A00F2004D08F3004E08F4004F08F5000A1678
:101E7A008A111B220A128A15031C872F3330F0009D
:101E8A007330F1004030F2004D08F3004E08F400C0
:101E9A004F08F5000A168A111B220A128A1503181E
:101EAA00872F4D088312DD0083164E088312DE0049
:101EBA0083164F088312DF001830903E8400831780
:101ECA000008E000840A0008E100840A0008E20031
:101EDA001B30903E84000008E300840A0008E400F6
:101EEA00840A0008E500831631088312E700831686
:101EFA0030088312E600831633088312E90083163A
:101F0A003208DD2F4D08F0004E08F1004F08F200AC
:101F1A001F30F3009D30F4004030F5000A168A1194
:101F2A001B220A128A150318EC2FCD30F0008C30D0
:101F3A00F1004030F2004D08F3004E08F4004F085B
:101F4A00F5000A168A111B220A128A150318EC2FA9
:101F5A004D088312DD0083164E088312DE008316B5
:101F6A004F088312DF001B30903E8400831700085D
:101F7A00E000840A0008E100840A0008E2001E303A
:101F8A00903E84000008E300840A0008E400840A02
:101F9A000008E500831633088312E7008316320827
:101FAA008312E600831635088312E9008316340883
:101FBA008312E8000A168A118A250A128A155E080F
:101FCA008316CC0083125D088316CB00F02F9C3059
:101FDA00CB00FF30CC004C08F9004B08F8000A1679
:101FEA008A112421780883120313ED007908EE0080
:061FFA007A08EF00080068
:1021C200081201300A168A11482208008312A00060
:1021D200081220080A168A114822080003308316C2
:1021E2008500831285018316880108007E088A0013
:1021F2007F088200F7200A168A118000840A0408E8
:102202007D0603190034FF0A0319FE0AFB28F200B7
:102212007208F100700884000A128A150A200A1650
:102222008A11FF00710884007F088317800000086C
:10223200031908000130FF007F08F1070130FF0099
:102242007F08F0070B29FB01F91F2E29F809F9096C
:10225200F80A0319F90AFB01FB0A7808F000790869
:10226200F100F2018E30F3007B08F4000A168A11A5
:102272003B247008F8007108F9007208FA0008009F
:102282002E082D042C04031948298030AE062F088D
:10229200A0003008A1003108A2002C08A3002D08DC
:1022A200A4002E08A5000A128A154C212008AC00B1
:1022B2002108AD002208AE000800CD34CC343D34F4
:1022C2009A3499343E349A3419343F34CD348C34B0
:1022D2003F349A34D9343F34CD340C3440349A34B8
:1022E2003934403433345334403433347334403427
:1022F200CD348C344034CD349C344034081621081B
:10230200FF00200884000A128A1500200A168A118A
:10231200003A031908002108FF00200884000A126D
:102322008A1500200A168A110A168A1148220A16EC
:102332008A110130A0070318A10A0030A1078029E1
:102342008E30FC00FF307B050319B52901300310E4
:10235200FB0CFA0CF90CF80CFF3E031DA829013006
:10236200FF007F08FC07A3297808F0007908F10034
:102372007A08F2007C08F300F4010A168A113B2461
:102382007008F8007108F9007208FA0008000A16CD
:102392008A11EF200A168A110A128A1105200A16DA
:1023A2008A110A128A158D200A168A110A168A11B2
:1023B200A7240A168A110A168A11D0230A168A112C
:1023C200033083160313DB000830DA007630D900BD
:1023D200D90BE929DA0BE929DB0BE9290000D72916
:1023E200003400340A340034143400341E3400340F
:1023F20028340034323400343C340034463400345F
:10240200503400345A3400346434003464345A345E
:10241200503446343C3432342D34283423341E3480
:10242200193414340F340A3405340034F634EC34DD
:10243200E234D834F21F2A2A7008003CF0007108F6
:10244200031C710F003CF1007208031C720F803CE8
:10245200F200F51F392A7308003CF3007408031CCC
:10246200740F003CF4007508031C750F803CF500E6
:102472008030F2068030F50675087202031D0800EE
:1024820074087102031D0800730870020800FD0041
:102492007D08FC0004300310FC0CFF3E031D4C2A97
:1024A2000808F0397C04880088160030F3000030F8
:1024B200F2000030F1000130F0000A168A11AB225E
:1024C2000A168A1188120F307D05FC000808F039BF
:1024D2007C04880088160030F3000030F2000030DF
:1024E200F1000130F0000A168A11AB2288120800AE
:1024F200770878040319A62AFB01FB0AF81B8D2A28
:1025020001300310F70DF80DFF3E031D822A013042
:10251200FF007F08FB077F2A78087A02031D932AAF
:1025220077087902031C9B2A7708F9027808031CB2
:10253200FA03FA0201300310F80CF70CFF3E031DF8
:102542009C2A0130FB02031D8D2A7A08F8007908C3
:10255200F70008000030FB000030FA000030F900FC
:102562000030F8007008F4007108F5007208F600F7
:102572007308F70006300310F70CF60CF50CF40C98
:10258200FF3E031DBC2A77087B02031DD22A760870
:102592007A02031DD22A75087902031DD22A740811
:1025A2007802031808000130F807003003180130E0
:1025B200F907003003180130FA0700300318013020
:1025C200FB07B32AF401F5017008710403191A2BF1
:1025D200F601F60AF11BF92A01300310F00DF10D94
:1025E200FF3E031DEE2A0130FF007F08F607EB2AAB
:1025F20001300310F40DF50DFF3E031DFA2A710898
:102602007302031D062B70087202031C0F2B700845
:10261200F2027108031CF303F30274140130031075
:10262200F10CF00CFF3E031D102B0130F602031DCE
:10263200F92A7508F1007408F0000800B13400347A
:1026420000340034F1340034003400344C340134AA
:1026520000340034D3340134003400349B34023467
:1026620000340034CD34033400340034A434043450
:1026720000340034B3340534003400340A340734EF
:1026820000340034BE34083400340034EC340A34EC
:1026920000340034C0340D34003400346234113458
:1026A20000340034263416340034003470341C34C0
:1026B20000340034CC3424340034003434343F3415
:1026C200003400340834703400340034DC34CD3447
:1026D20000340034A0348634013400345008FC0045
:1026E20001300310FC0DFF3E031D722B03107C0D05
:1026F2001F049F009F140630FD003030FC00FC0BCD
:10270200802BFD0B802B0000831203139F18852B57
:102712001E08FC00FD017C08FD00FC0183161E085A
:102722007C07F8000030031801307D07F9000A1613
:102732008A1124210A168A11780883120313D300FE
:102742007908D4007A08D500E330FF007F089F059E
:102752000030C1008030C2004430C3000030B200FB
:10276200A030B3004030B4005308B5005408B6009E
:102772005508B7000A168A119B260A168A113208D2
:10278200C4003308C5003408C6000A168A110D2693
:102792004108D0004208D1004308D20008000130AD
:1027A200D0000030D1000A168A116F230A168A114E
:1027B20050088316DF00831251088316E00083124B
:1027C20052088316E100DF300A128A110F200A161E
:1027D2008A116D088316D40083126E088316D50001
:1027E20083126F088316D60054088312D000831612
:1027F20055088312D100831656088312D2000A1696
:102802008A1113250A168A1151088316D8008312D9
:1028120050088316D7009C305706031D1C2C580AFB
:10282200031D1C2C4630F000B1300A168A11082113
:102832000A168A112D2C20308312A0008316580804
:102842008312A200831657088312A100B1300A1620
:102852008A1142270A168A1194300A168A11E72031
:102862000A168A11B130A0000130A1000A168A119D
:102872007F21080073080319432C72087104700445
:10288200031D562C0030F0000030F1000030F20041
:1028920008000130FF007F08F30701300310F20C3B
:1028A200F10CF00CFF3E031D4F2CFE307205031994
:1028B200712C4A2C0130FF007F08F3070130F0072A
:1028C200003003180130F107003003180130F2071D
:1028D20001300310F20CF10CF00CFF3E031D6A2CC8
:1028E200FF3072050319842C5B2C02307302031C27
:1028F200862C0130F30201300310F00DF10DF20DC0
:10290200FF3E031D7D2CF11F762C73188E2CFF3099
:10291200F0057F30F105FF30F2050310F30C730868
:10292200F500F601F70110300310F50DF60DF70D65
:10293200FF3E031D952C7508F0047608F104770814
:10294200F204740803190800F21708000030831219
:102952000313D000D1000A168A116F230A168A11B6
:1029620050088316DC00831251088316DD0083129F
:1029720052088316DE00DC300A128A1565240A1614
:102982008A116D088316D00083126E088316D10057
:1029920083126F088316D20050088312D000831668
:1029A20051088312D100831652088312D2000A16EC
:1029B2008A1113250A168A1151088316D40083122C
:1029C20050088316D3009C305306031DF42C540A7E
:1029D200031DF42C3330F000B1300A168A1108219D
:1029E2000A168A11052D0B308312A0008316540893
:1029F2008312A200831653088312A100B1300A1673
:102A02008A1142270A168A1180300A168A11E72093
:102A12000A168A11B130A0000130A1000A168A11EB
:102A22007F2108005008D4005108D5005208D60072
:102A32000310550D560DDC005C08031D292D0030D6
:102A4200D3000030D2000030D1000030D0000800A6
:102A52005008D4005108D5005208D6001730031090
:102A6200D60CD50CD40CFF3E031D302D5408D700D4
:102A7200D117FF30D005FF30D1050030D205500804
:102A8200D8005108D9005208DA00DB018E30DC028E
:102A9200DC1F602D5C08803A8F3E031C202D013024
:102AA2000310DB0CDA0CD90CD80CFF3E031D512DA0
:102AB2000130FF007F08DC070319732D502D1830F9
:102AC2005C020318202D5C080319732D0130D40019
:102AD2000310D80DD90DDA0DDB0DD40B692D0130A1
:102AE200DC02642D57080319812DD809D909DA09A6
:102AF200DB09D80A0319D90A0319DA0A0319DB0A0E
:102B02005B08D3005A08D2005908D1005808D000F7
:102B1200080066086802F8006708031C670A690271
:102B2200F9000A168A1124210A168A1178088312DA
:102B32000313C4007908C5007A08C6006308AF0011
:102B42006408B0006508B1006008AC006108AD001F
:102B52006208AE000A168A1141210A168A112C084F
:102B6200C1002D08C2002E08C3000A168A110D26C4
:102B72000A168A114108B5004208B6004308B70098
:102B82005D08AF005E08B0005F08B1006008AC00ED
:102B92006108AD006208AE000A168A1141210A16C8
:102BA2008A112C08B2002D08B3002E08B4000A16B0
:102BB2008A119B260A168A113208EA003308EB00B2
:102BC2003408EC006708F9006608F8000A168A1152
:102BD20024210A168A11780883120313A3007908A4
:102BE200A4007A08A5006A08A0006B08A1006C087E
:102BF200A2000A128A154C210A168A112008D00056
:102C02002108D1002208D2000A168A111325510880
:102C1200DE005008DD0008004408C7004508C8006F
:102C22004608C9000310480D490DCE004E08031D89
:102C3200212E0030C1000030C2000030C300080065
:102C42004108C7004208C8004308C9000310480DE4
:102C5200490DCF004F08031D352E0030C100003052
:102C6200C2000030C30008000030CB000030CC00AE
:102C72000030CD0089304F07C7004708CE02460812
:102C8200CF004308FF007F08CF068030FF007F0897
:102C9200CF05C517FF30C405FF30C5050030C60596
:102CA200C217FF30C105FF30C2050030C30518301E
:102CB200CA0001300310CB0DCC0DCD0DFF3E031D1C
:102CC2005B2E43084602031D6C2E42084502031D7B
:102CD2006C2E41084402031C792E4108C4024208AA
:102CE200031C420FC5024308031C430AC6024B14CD
:102CF20001300310C40DC50DC60DFF3E031D7A2E13
:102D02000130CA02031D5A2E4B08F0004C08F10094
:102D12004D08F2004E08F3004F08F4000A168A111B
:102D22003B24700883120313C1007108C2007208A9
:102D3200C30008003208B8003308B9003408BA00EA
:102D42000310390D3A0DBB003B08031DAF2E0030B6
:102D5200B2000030B3000030B40008003508B800FB
:102D62003608B9003708BA000310390D3A0DC00011
:102D72004008031DC32E0030B2000030B300003003
:102D8200B400080040087B3EFF007F08BB07340800
:102D9200C0003708FF007F08C0068030FF007F08B0
:102DA200C005B317B617FF30B505FF30B6050030C2
:102DB200B7050030BC000030BD000030BE00073057
:102DC200BF00321CF22E3508BC0736080311031867
:102DD200360A031DBD07370803110318370A031DFE
:102DE200BE0701300310B40CB30CB20CFF3E031D3E
:102DF200F32E01300310B50DB60DB70DFF3E031DC6
:102E0200FB2E0130BF02031DE22E0930BF00321C2F
:102E1200182F3508BC07360803110318360A031D9C
:102E2200BD07370803110318370A031DBE07013017
:102E32000310B40CB30CB20CFF3E031D192F01306A
:102E42000310BE0CBD0CBC0CFF3E031D212F013034
:102E5200BF02031D082F3C08F0003D08F1003E08A8
:102E6200F2003B08F3004008F4000A168A113B24E2
:102E7200700883120313B2007108B3007208B40021
:102E82000800AB002130A6000130A007FF30200768
:102E920084000A128A150A200A168A11AC002C082C
:102EA2000319FB2F25302C060319612F2B088400F0
:102EB2002C08831780000130FF007F08AB07452FE5
:102EC200A7010130A007FF30200784000A128A15EB
:102ED2000A200A168A11AC00003A0319FB2F643A41
:102EE2000319772F0D3A0319772F452F26088400EF
:102EF20083130008A900840A0008AA000230FF0018
:102F02007F08A607AA1F8E2F0330FF007F08A704A1
:102F1200A909AA09A90A0319AA0AAC01AC0A2C0830
:102F2200A3002307013E84000A128A150A200A160A
:102F32008A11A4000A128A150A200A168A11A5000B
:102F420025082A02031DA72F24082902031CB12FDA
:102F52000130FF007F08AC0705302C06031D902FBF
:102F6200270803390319BE2F2B0884002D3083173D
:102F720080000130FF007F08AB072C08A800FF305B
:102F8200FF007F08A807280A0319452F0A30F70017
:102F92000030F8002808A3002307013E84000A122B
:102FA2008A150A200A168A11F0000A128A150A20C6
:102FB2000A168A11F1002A08F3002908F2000A16FB
:102FC2008A11E3220A168A117108FA007008F900C0
:102FD2000A168A1179220A168A117708303EAC0045
:102FE2002B0884002C08831780000130FF007F0823
:0E2FF200AB07C02F2B08840083178001080056
:04400E00D420FF3883
:00000001FF
